{
  "transactions": [
    {
      "hash": "0x6a3dff9c36e22afbffb5b95785d6be9800e9552b151301fff667f2dbf3d07a4d",
      "transactionType": "CALL",
      "contractName": null,
      "contractAddress": "0x0000000000000000000000000000000000001069",
      "function": "transferToCosmos(string,uint256)",
      "arguments": [
        "6x1kch0sdjr5tuvjh0h3a55c6l5sr6m0phjeag9f2",
        "900000000000000000000"
      ],
      "transaction": {
        "from": "0xb62ef83643a2f8c95df78f694c6bf480f5b786f2",
        "to": "0x0000000000000000000000000000000000001069",
        "gas": "0x7857",
        "value": "0x0",
        "input": "0x42cd26d30000000000000000000000000000000000000000000000000000000000000040000000000000000000000000000000000000000000000030ca024f987b90000000000000000000000000000000000000000000000000000000000000000000293678316b63683073646a72357475766a6830683361353563366c357372366d3070686a6561673966320000000000000000000000000000000000000000000000",
        "nonce": "0xb",
        "chainId": "0x62"
      },
      "additionalContracts": [],
      "isFixedGasLimit": false
    }
  ],
  "receipts": [
    {
      "status": "0x1",
      "cumulativeGasUsed": "0x71b0",
      "logs": [],
      "logsBloom": "0x00000000000000000000000000000000000000000000000000000000000000000000000000000000000000000000000000000000000000000000000000000000000000000000000000000000000000000000000000000000000000000000000000000000000000000000000000000000000000000000000000000000000000000000000000000000000000000000000000000000000000000000000000000000000000000000000000000000000000000000000000000000000000000000000000000000000000000000000000000000000000000000000000000000000000000000000000000000000000000000000000000000000000000000000000000000",
      "type": "0x2",
      "transactionHash": "0x6a3dff9c36e22afbffb5b95785d6be9800e9552b151301fff667f2dbf3d07a4d",
      "transactionIndex": "0x0",
      "blockHash": "0xf38acbf5ba47db0e644bf95061222b63e21ae79c1d28a7df816f88212a910b0f",
      "blockNumber": "0x399",
      "gasUsed": "0x71b0",
      "effectiveGasPrice": "0x48c27395001",
      "from": "0xb62ef83643a2f8c95df78f694c6bf480f5b786f2",
      "to": "0x0000000000000000000000000000000000001069",
      "contractAddress": null
    }
  ],
  "libraries": [],
  "pending": [],
  "returns": {},
  "timestamp": 1763615259683,
  "chain": 98,
  "commit": "cf6e9dfb"
}