{
  "transactions": [
    {
      "hash": "0x2219f56c24cba7e71940284df99042fc08ca747aa882199169c8599393514454",
      "transactionType": "CALL",
      "contractName": null,
      "contractAddress": "0x0a1abeeda4f9c28fd1609cc66852955ee01b2c58",
      "function": "virtualAction(string,(string,address,string)[],string,string,string)",
      "arguments": [
        "DB78ECD1.medical",
        "[(DB78ECD1.divine_elite, 0x3dE67cA134e37D4987469acCa9B5E1485EB7e43B, 1), (DB78ECD1.membership, 0x6Be99FbD92e391A9614d9D6117b359FBaC1379a6, 5), (DB78ECD1.preventive, 0x419e166D1b5a51CabF60DAB48Da26EaB8388A7Ef, 3), (DB78ECD1.lifestyle, 0x9ebA108a54A8bF4f0429549F04797027D7315A60, 6)]",
        "bridge_3_to_1",
        "",
        "[]"
      ],
      "transaction": {
        "from": "0xb62ef83643a2f8c95df78f694c6bf480f5b786f2",
        "to": "0x0a1abeeda4f9c28fd1609cc66852955ee01b2c58",
        "gas": "0x2812c",
        "value": "0x0",
        "input": "0x427268fa00000000000000000000000000000000000000000000000000000000000000a000000000000000000000000000000000000000000000000000000000000000e0000000000000000000000000000000000000000000000000000000000000050000000000000000000000000000000000000000000000000000000000000005400000000000000000000000000000000000000000000000000000000000000560000000000000000000000000000000000000000000000000000000000000001044423738454344312e6d65646963616c000000000000000000000000000000000000000000000000000000000000000000000000000000000000000000000004000000000000000000000000000000000000000000000000000000000000008000000000000000000000000000000000000000000000000000000000000001600000000000000000000000000000000000000000000000000000000000000240000000000000000000000000000000000000000000000000000000000000032000000000000000000000000000000000000000000000000000000000000000600000000000000000000000003de67ca134e37d4987469acca9b5e1485eb7e43b00000000000000000000000000000000000000000000000000000000000000a0000000000000000000000000000000000000000000000000000000000000001544423738454344312e646976696e655f656c69746500000000000000000000000000000000000000000000000000000000000000000000000000000000000001310000000000000000000000000000000000000000000000000000000000000000000000000000000000000000000000000000000000000000000000000000600000000000000000000000006be99fbd92e391a9614d9d6117b359fbac1379a600000000000000000000000000000000000000000000000000000000000000a0000000000000000000000000000000000000000000000000000000000000001344423738454344312e6d656d6265727368697000000000000000000000000000000000000000000000000000000000000000000000000000000000000000000135000000000000000000000000000000000000000000000000000000000000000000000000000000000000000000000000000000000000000000000000000060000000000000000000000000419e166d1b5a51cabf60dab48da26eab8388a7ef00000000000000000000000000000000000000000000000000000000000000a0000000000000000000000000000000000000000000000000000000000000001344423738454344312e70726576656e74697665000000000000000000000000000000000000000000000000000000000000000000000000000000000000000001330000000000000000000000000000000000000000000000000000000000000000000000000000000000000000000000000000000000000000000000000000600000000000000000000000009eba108a54a8bf4f0429549f04797027d7315a6000000000000000000000000000000000000000000000000000000000000000a0000000000000000000000000000000000000000000000000000000000000001244423738454344312e6c6966657374796c65000000000000000000000000000000000000000000000000000000000000000000000000000000000000000000013600000000000000000000000000000000000000000000000000000000000000000000000000000000000000000000000000000000000000000000000000000d6272696467655f335f746f5f3100000000000000000000000000000000000000000000000000000000000000000000000000000000000000000000000000000000000000000000000000000000000000000000000000000000000000000000025b5d000000000000000000000000000000000000000000000000000000000000",
        "nonce": "0x8ac",
        "chainId": "0x96"
      },
      "additionalContracts": [],
      "isFixedGasLimit": false
    }
  ],
  "receipts": [
    {
      "status": "0x1",
      "cumulativeGasUsed": "0x1ffbb",
      "logs": [
        {
          "address": "0x0a1abeeda4f9c28fd1609cc66852955ee01b2c58",
          "topics": [
            "0x0dd39d88083c80ab56b145e03be3901e5aae82f8fe88c5b2ba19994e83e7afe0",
            "0x9df5f7272e48d7f5e7bd3dbf2da12fd1de01cc4a84ed8b23a7ef3b2af691a734",
            "0x173c8f97caf4787f547d6fb0a410a3bade5a28caf66ded757a07ad576eb2b850"
          ],
          "data": "0x000000000000000000000000000000000000000000000000000000000000006000000000000000000000000000000000000000000000000000000000000000a000000000000000000000000000000000000000000000000000000000000000c0000000000000000000000000000000000000000000000000000000000000000d6272696467655f335f746f5f3100000000000000000000000000000000000000000000000000000000000000000000000000000000000000000000000000000000000000000000000000000000000000000000000000000000000000000000025b5d000000000000000000000000000000000000000000000000000000000000",
          "blockHash": "0xd9ae10794845d4de9fc522f5df39f29e9bdcc551f68eb739d0b5253359c89637",
          "blockNumber": "0xb8f797",
          "transactionHash": "0x2219f56c24cba7e71940284df99042fc08ca747aa882199169c8599393514454",
          "transactionIndex": "0x0",
          "logIndex": "0x0",
          "removed": false
        }
      ],
      "logsBloom": "0x00000000000000000000000000000000000000000000000000000000000000000000000000000000000000000000000000000000000000000000000000001000000000000000000000000000000000000000000000000000000000000000400000000000000000000000400000000000000000000000000040000000000000000000000000000000000000000800000000000000202000000000000000000000000000000000000008000020000000000000000001000000000000000000000000000000000000000000000000000000000000000000000002000000000000080000000000000000000000000000000000000000000000000000000000000000",
      "type": "0x2",
      "transactionHash": "0x2219f56c24cba7e71940284df99042fc08ca747aa882199169c8599393514454",
      "transactionIndex": "0x0",
      "blockHash": "0xd9ae10794845d4de9fc522f5df39f29e9bdcc551f68eb739d0b5253359c89637",
      "blockNumber": "0xb8f797",
      "gasUsed": "0x1ffbb",
      "effectiveGasPrice": "0x48c27395001",
      "from": "0xb62ef83643a2f8c95df78f694c6bf480f5b786f2",
      "to": "0x0a1abeeda4f9c28fd1609cc66852955ee01b2c58",
      "contractAddress": null
    }
  ],
  "libraries": [],
  "pending": [],
  "returns": {},
  "timestamp": 1739179100,
  "chain": 150,
  "commit": "7454032a"
}
