{
  "transactions": [
    {
      "hash": "0xb72dc8e390688a7ba25b27958ce0b51d6273c501500928ad9df1ec5686441dd6",
      "transactionType": "CALL",
      "contractName": null,
      "contractAddress": "0x0a1abeeda4f9c28fd1609cc66852955ee01b2c58",
      "function": "virtualAction(string,(string,address,string)[],string,string,string)",
      "arguments": [
        "DB78ECD1.medical",
        "[(DB78ECD1.divine_elite, 0x3dE67cA134e37D4987469acCa9B5E1485EB7e43B, 1), (DB78ECD1.membership, 0x6Be99FbD92e391A9614d9D6117b359FBaC1379a6, 5), (DB78ECD1.preventive, 0x419e166D1b5a51CabF60DAB48Da26EaB8388A7Ef, 3), (DB78ECD1.lifestyle, 0x9ebA108a54A8bF4f0429549F04797027D7315A60, 6)]",
        "native_bridge",
        "",
        "[{\\\"name\\\":\\\"amount\\\",\\\"value\\\": \\\"10\\\"}]"
      ],
      "transaction": {
        "from": "0xb62ef83643a2f8c95df78f694c6bf480f5b786f2",
        "to": "0x0a1abeeda4f9c28fd1609cc66852955ee01b2c58",
        "gas": "0x262ca",
        "value": "0x0",
        "input": "0x427268fa00000000000000000000000000000000000000000000000000000000000000a000000000000000000000000000000000000000000000000000000000000000e0000000000000000000000000000000000000000000000000000000000000050000000000000000000000000000000000000000000000000000000000000005400000000000000000000000000000000000000000000000000000000000000560000000000000000000000000000000000000000000000000000000000000001044423738454344312e6d65646963616c000000000000000000000000000000000000000000000000000000000000000000000000000000000000000000000004000000000000000000000000000000000000000000000000000000000000008000000000000000000000000000000000000000000000000000000000000001600000000000000000000000000000000000000000000000000000000000000240000000000000000000000000000000000000000000000000000000000000032000000000000000000000000000000000000000000000000000000000000000600000000000000000000000003de67ca134e37d4987469acca9b5e1485eb7e43b00000000000000000000000000000000000000000000000000000000000000a0000000000000000000000000000000000000000000000000000000000000001544423738454344312e646976696e655f656c69746500000000000000000000000000000000000000000000000000000000000000000000000000000000000001310000000000000000000000000000000000000000000000000000000000000000000000000000000000000000000000000000000000000000000000000000600000000000000000000000006be99fbd92e391a9614d9d6117b359fbac1379a600000000000000000000000000000000000000000000000000000000000000a0000000000000000000000000000000000000000000000000000000000000001344423738454344312e6d656d6265727368697000000000000000000000000000000000000000000000000000000000000000000000000000000000000000000135000000000000000000000000000000000000000000000000000000000000000000000000000000000000000000000000000000000000000000000000000060000000000000000000000000419e166d1b5a51cabf60dab48da26eab8388a7ef00000000000000000000000000000000000000000000000000000000000000a0000000000000000000000000000000000000000000000000000000000000001344423738454344312e70726576656e74697665000000000000000000000000000000000000000000000000000000000000000000000000000000000000000001330000000000000000000000000000000000000000000000000000000000000000000000000000000000000000000000000000000000000000000000000000600000000000000000000000009eba108a54a8bf4f0429549f04797027d7315a6000000000000000000000000000000000000000000000000000000000000000a0000000000000000000000000000000000000000000000000000000000000001244423738454344312e6c6966657374796c65000000000000000000000000000000000000000000000000000000000000000000000000000000000000000000013600000000000000000000000000000000000000000000000000000000000000000000000000000000000000000000000000000000000000000000000000000d6e61746976655f62726964676500000000000000000000000000000000000000000000000000000000000000000000000000000000000000000000000000000000000000000000000000000000000000000000000000000000000000000000215b7b226e616d65223a22616d6f756e74222c2276616c7565223a20223130227d5d00000000000000000000000000000000000000000000000000000000000000",
        "nonce": "0x8ab",
        "chainId": "0x96"
      },
      "additionalContracts": [],
      "isFixedGasLimit": false
    }
  ],
  "receipts": [],
  "libraries": [],
  "pending": [],
  "returns": {},
  "timestamp": 1739178854,
  "chain": 150,
  "commit": "7454032a"
}
